:100000000C942A000C9464100C9447000C94470044
:100010000C9447000C9447000C94700C0C94A30CA7
:100020000C94D60C0C94090D0C94770A0C94AA0A23
:100030000C9447000C9447000C9447000C94470024
:100040000C9481170C9447000C9447000C944700C3
:100050000C94470011241FBECFE5D8E0DEBFCDBF12
:1000600011E0A0E6B0E0E6E1F4E502C005900D92F3
:10007000A63EB107D9F713E0A6EEB1E001C01D928C
:10008000A732B107E1F70E941B260C94092A0C94B1
:100090000000EF92FF920F931F937B018C0120E0F1
:1000A00030E040E05FE40E94F50388238CF0C80153
:1000B000B70120E030E040E05FE40E94C1010E940F
:1000C00055049B01AC01205030404040504806C0D0
:1000D000C801B7010E9455049B01AC01B901CA01D6
:1000E0001F910F91FF90EF900895A0E0B0E0EBE733
:1000F000F0E00C94BB29DC012B01FA019C919230B9
:1001000008F439C1EB018881823008F433C194309E
:1001100069F4843009F02FC111969C91119789815F
:10012000981709F428C1A9EBB1E025C1843009F47E
:1001300021C18230A9F4923009F01DC19A01AD01AC
:1001400088E0EA010990AE01E90109929E0181501F
:10015000C1F7E201898111969C918923818308C1AD
:10016000923009F407C112962D903C901397EB0141
:100170008A819B811496AD90BD90CD90DC901797AD
:10018000EC80FD800E811F819101281B390BB90184
:1001900037FF04C066277727621B730B6032710537
:1001A0000CF061C0121613066CF537014801062EDB
:1001B00004C096948794779467940A94D2F721E0C8
:1001C00030E040E050E004C0220F331F441F551FB1
:1001D0006A95D2F721503040404050402E213F21B7
:1001E00040235123211531054105510521F021E01E
:1001F00030E040E050E079018A01E628F72808293C
:1002000019293CC0232BD1F1260E371E350146019A
:10021000062E04C096948794779467940A94D2F734
:1002200021E030E040E050E004C0220F331F441FC3
:10023000551F6A95D2F721503040404050402A2146
:100240003B214C215D21211531054105510521F04E
:1002500021E030E040E050E059016A01A628B728CB
:10026000C828D9280BC0821593052CF01C01AA249C
:10027000BB24650103C0EE24FF24870111969C91E5
:10028000D20111968C91981709F445C0992339F041
:10029000A80197012A193B094C095D0906C0A6016E
:1002A00095012E193F09400B510B57FD08C01182D3
:1002B0003382228224833583468357831DC081E0A5
:1002C00081833382228288279927DC01821B930B4A
:1002D000A40BB50B84839583A683B7830DC0220F2F
:1002E000331F441F551F24833583468357838281E0
:1002F000938101979383828324813581468157813D
:10030000DA01C9010197A109B1098F5F9F4FAF4F72
:10031000BF4328F30BC0918333822282EA0CFB1C7B
:100320000C1D1D1DE482F5820683178383E0808304
:10033000248135814681578157FF1AC0C901AA27F8
:1003400097FDA095BA2F81709070A070B0705695EF
:10035000479537952795822B932BA42BB52B848318
:100360009583A683B7838281938101969383828349
:10037000DF0101C0D201CD01CDB7DEB7E2E10C94BF
:10038000D729A0E2B0E0E7ECF1E00C94C72969833B
:100390007A838B839C832D833E834F835887E9E048
:1003A000EE2EF12CEC0EFD1ECE010196B7010E943F
:1003B0007E058E010F5E1F4FCE010596B8010E948B
:1003C0007E058A8991E089278A8BC701B801AE0131
:1003D000475E5F4F0E9475000E94A904A096E6E068
:1003E0000C94E329A0E2B0E0E8EFF1E00C94C72917
:1003F00069837A838B839C832D833E834F835887C5
:10040000F9E0EF2EF12CEC0EFD1ECE010196B701A6
:100410000E947E058E010F5E1F4FCE010596B8012A
:100420000E947E05C701B801AE01475E5F4F0E9482
:1004300075000E94A904A096E6E00C94E329A0E2CE
:10044000B0E0E5E2F2E00C94BB2969837A838B8308
:100450009C832D833E834F835887CE010196BE0136
:10046000675F7F4F0E947E05CE010596BE016F5EDD
:100470007F4F0E947E059985923088F0898982306D
:10048000C8F0943019F4823051F404C0843029F457
:10049000923081F489EB91E0C6C0923049F420E0BB
:1004A0009A858A89981321E02A87CE010996BBC0D4
:1004B000823049F420E09A858A89981321E02A8BBA
:1004C000CE014196B0C02D843E844F8458886D88FB
:1004D0007E888F88988CEE24FF248701AA24BB2471
:1004E000650140E050E060E070E0E0E0F0E0C10174
:1004F00081709070892BE9F0E60CF71C081D191D1E
:100500009A01AB012A0D3B1D4C1D5D1D80E090E062
:10051000A0E0B0E0E614F7040805190520F481E036
:1005200090E0A0E0B0E0BA01A901480F591F6A1F8E
:100530007B1FAA0CBB1CCC1CDD1C97FE08C081E0F5
:1005400090E0A0E0B0E0A82AB92ACA2ADB2A3196B6
:10055000E032F10549F0660C771C881C991C569412
:10056000479437942794C3CFFA85EA892B893C892D
:100570008B859C85280F391F2E5F3F4F17C0CA01FE
:1005800081709070892B61F016950795F794E79428
:1005900080E090E0A0E0B0E8E82AF92A0A2B1B2BC3
:1005A00076956795579547952F5F3F4F77FDE7CF36
:1005B0000CC0440F551F661F771F17FD4160EE0CDE
:1005C000FF1C001F111F21503040403090E05907A0
:1005D00090E0690790E4790760F32B8F3C8FDB0193
:1005E000CA018F779070A070B07080349105A1051A
:1005F000B10561F447FD0AC0E114F10401051105DC
:1006000029F0405C5F4F6F4F7F4F40781A8EFE1786
:1006100011F081E08A8F4D8F5E8F6F8F78A383E01A
:10062000898FCE0149960E94A904A096E2E10C941C
:10063000D729A8E1B0E0EFE1F3E00C94C329698386
:100640007A838B839C832D833E834F835887B9E0C5
:10065000EB2EF12CEC0EFD1ECE010196B7010E948F
:100660007E058E010F5E1F4FCE010596B8010E94D8
:100670007E052985223008F47EC03989323010F495
:10068000B8017CC08A859A8989278A87243011F02D
:10069000223031F4231709F06EC069EB71E06EC0AF
:1006A000343039F41D861E861F86188A1C861B86E8
:1006B00004C0323021F484E08987B7015FC02B8504
:1006C0003C858B899C89281B390B3C872B87ED84C3
:1006D000FE840F851889AD88BE88CF88D88CEA142F
:1006E000FB040C051D0540F4EE0CFF1C001F111F40
:1006F000215030403C872B8720E030E040E050E044
:1007000080E090E0A0E0B0E460E070E0EA14FB0478
:100710000C051D0540F0282B392B4A2B5B2BEA18C2
:10072000FB080C091D09B695A79597958795EE0CC2
:10073000FF1C001F111F6F5F7F4F6F31710531F775
:10074000DA01C9018F779070A070B0708034910584
:10075000A105B10561F427FD0AC0E114F10401050A
:10076000110529F0205C3F4F4F4F5F4F20782D87B8
:100770003E874F87588BBE01675F7F4FCB010E943A
:10078000A9046896EAE00C94DF29A8E1B0E0EBEC5C
:10079000F3E00C94C72969837A838B839C832D8330
:1007A0003E834F83588789E0E82EF12CEC0EFD1E26
:1007B000CE010196B7010E947E058E010F5E1F4F8C
:1007C000CE010596B8010E947E058985823040F0F1
:1007D0008989823028F0C701B8010E94F60501C05E
:1007E0008FEF6896E6E00C94E329A8E1B0E0EBEF28
:1007F000F3E00C94C72969837A838B839C832D83D0
:100800003E834F83588789E0E82EF12CEC0EFD1EC5
:10081000CE010196B7010E947E058E010F5E1F4F2B
:10082000CE010596B8010E947E058985823040F090
:100830008989823028F0C701B8010E94F60501C0FD
:100840008FEF6896E6E00C94E329A8E1B0E0EBE2D4
:10085000F4E00C94C72969837A838B839C832D836E
:100860003E834F83588789E0E82EF12CEC0EFD1E65
:10087000CE010196B7010E947E058E010F5E1F4FCB
:10088000CE010596B8010E947E058985823040F030
:100890008989823028F0C701B8010E94F60501C09D
:1008A00081E06896E6E00C94E329ACE0B0E0EBE58B
:1008B000F4E00C94CB2969837A838B839C83CE01EB
:1008C0000196BE016B5F7F4F0E947E058D81823055
:1008D00061F1823050F1843021F48E81882351F10E
:1008E0002EC02F81388537FD20C06E812F31310514
:1008F0001CF06623F9F023C08EE190E0821B930B7D
:1009000029853A854B855C8504C056954795379572
:1009100027958A95D2F76623B1F05095409530958A
:1009200021953F4F4F4F5F4F0EC020E030E040E039
:1009300050E009C02FEF3FEF4FEF5FE704C020E02A
:1009400030E040E050E8B901CA012C96E2E00C9496
:10095000E729DF92EF92FF920F931F93FC01E4804F
:10096000F58006811781D1808081823048F480E053
:1009700090E0A0E1B0E0E82AF92A0A2B1B2BA5C0E1
:10098000843009F49FC0823021F4EE24FF248701D3
:1009900005C0E114F1040105110519F4E0E0F0E0EF
:1009A00096C0628173819FEF623879070CF05BC05B
:1009B00022E83FEF261B370B2A3131052CF020E0CF
:1009C00030E040E050E02AC0B801A701022E04C088
:1009D00076956795579547950A94D2F781E090E010
:1009E000A0E0B0E004C0880F991FAA1FBB1F2A9582
:1009F000D2F70197A109B1098E219F21A023B1232C
:100A00000097A105B10521F081E090E0A0E0B0E001
:100A10009A01AB01282B392B4A2B5B2BDA01C90138
:100A20008F779070A070B07080349105A105B105EA
:100A300039F427FF09C0205C3F4F4F4F5F4F04C080
:100A4000215C3F4F4F4F5F4FE0E0F0E02030A0E0EF
:100A50003A07A0E04A07A0E45A0710F0E1E0F0E00E
:100A600079018A0127C06038710564F5FB01E158FE
:100A7000FF4FD801C7018F779070A070B07080349D
:100A80009105A105B10539F4E7FE0DC080E490E0C1
:100A9000A0E0B0E004C08FE390E0A0E0B0E0E80E9A
:100AA000F91E0A1F1B1F17FF05C016950795F7941F
:100AB000E794319687E016950795F794E7948A9521
:100AC000D1F705C0EE24FF248701EFEFF0E06E2F91
:100AD000679566276795902F9F77D794DD24D794E5
:100AE0008E2F8695492F462B582F5D29B701CA01B5
:100AF0001F910F91FF90EF90DF900895FC01DB01B3
:100B0000408151812281622F6F7770E0221F22275E
:100B1000221F9381892F880F822B282F30E0991F65
:100B20009927991F11969C93119721153105A9F5C5
:100B3000411551056105710511F482E037C082E865
:100B40009FEF13969C938E9312979A01AB0167E0E7
:100B5000220F331F441F551F6A95D1F783E08C93F2
:100B60000DC0220F331F441F551F12968D919C916B
:100B70001397019713969C938E931297203080E0E1
:100B8000380780E0480780E4580758F314962D93FF
:100B90003D934D935C93179708952F3F310579F45A
:100BA000411551056105710519F484E08C93089590
:100BB00064FF03C081E08C9312C01C9210C02F57B9
:100BC000304013963C932E93129783E08C9387E0EA
:100BD000440F551F661F771F8A95D1F770641496CE
:100BE0004D935D936D937C93179708951F93DC014C
:100BF000FB019C91923008F447C08081823008F458
:100C000043C0943051F411961C91843099F5818140
:100C1000682F70E0611B71093FC0843021F0923071
:100C200031F48230B9F18181882389F12DC0119688
:100C30001C9111978230F1F081811817D9F4129626
:100C40002D913C911397828193818217930794F0A1
:100C500028173907BCF014968D919D910D90BC9189
:100C6000A02D2481358146815781281739074A07ED
:100C70005B0718F4112341F00AC082179307A407F9
:100C8000B50740F4112319F061E070E005C06FEF83
:100C90007FEF02C060E070E0CB011F910895DF9309
:100CA000CF930F92CDB7DEB71982AAE2B0E0EAE2A5
:100CB000F0E0808188608C93AAE2B0E0EAE2F0E0A4
:100CC000808180618C93A0E4B0E0E0E4F0E080817A
:100CD00080688C938981826089838981846089831B
:100CE000AAE2B0E0EAE2F0E080818B7F8C93898118
:100CF0008068898389818F7E898389818F7D8983BB
:100D00008981806889838981877F898389818068D7
:100D1000898389818F7B8983A0E4B0E0E0E4F0E0FF
:100D200080818F778C93E9E2F0E083E38083E0E4D5
:100D3000F0E01082ABE2B0E0EBE2F0E080818D7F8A
:100D40008C93E0E4F0E0898180830F90CF91DF9174
:100D50000895DF93CF9300D0CDB7DEB79A83898310
:100D6000EBE2F0E08081829586958770882F90E095
:100D7000817090700097A1F3ECE2F0E089818083AC
:100D8000EBE2F0E080818295869586958370882FCE
:100D900090E081709070009799F3ABE2B0E0EBE2E5
:100DA000F0E0808180648C930F900F90CF91DF9161
:100DB0000895DF93CF93CDB7DEB7EBE2F0E080810B
:100DC0008823DCF7ECE2F0E08081CF91DF91089599
:100DD000DF93CF93CDB7DEB72D970FB6F894DEBF74
:100DE0000FBECDBF9D878C8719821FC08981E82FD8
:100DF000FF27E7FDF0958C859D852AE030E0B9015D
:100E00000E946A29282FCE010296E80FF91F20833D
:100E10008C859D852AE030E0B9010E946A29CB01CA
:100E20009D878C8789818F5F89838C859D850097BD
:100E3000E9F689818150898313C08981282F33275E
:100E400027FD3095CE010296FC01E20FF31F808151
:100E5000882F90E0C0960E94A906898181508983DD
:100E60008981882354F72D960FB6F894DEBF0FBE04
:100E7000CDBFCF91DF910895DF93CF9300D0CDB751
:100E8000DEB79A8389830CC0E981FA818081882F3B
:100E900090E00E94A90689819A8101969A838983AC
:100EA000E981FA818081882379F70F900F90CF91A3
:100EB000DF910895DF93CF9300D000D0CDB7DEB798
:100EC0009C838B831982ECE2F0E010820E94D906A9
:100ED0008A838A818A3099F08981282F30E08B813A
:100EE0009C81FC01E20FF31F8A81808389818F5FDF
:100EF0008983EBE2F0E08081882344F701C01A8205
:100F00008981882F90E00F900F900F900F90CF91D4
:100F1000DF910895DF93CF93CDB7DEB7ECE2F0E039
:100F20001082CF91DF910895DF93CF9300D0CDB79A
:100F3000DEB79A83898389819A819093E8018093AF
:100F4000E701AAE2B0E0EAE2F0E0808180688C93F9
:100F50000F900F90CF91DF9108951F920F920FB6CF
:100F60000F9211242F933F934F935F936F937F932F
:100F70008F939F93AF93BF93EF93FF93DF93CF93A1
:100F8000CDB7DEB78091E7019091E801009761F05D
:100F9000ECE2F0E080818093E901E091E701F091DB
:100FA000E80189EE91E00995CF91DF91FF91EF91F2
:100FB000BF91AF919F918F917F916F915F914F9171
:100FC0003F912F910F900FBE0F901F901895DF93B8
:100FD000CF930F92CDB7DEB78983A6E5B0E0E6E503
:100FE000F0E0808180648C93E0E2F0E082E0808336
:100FF000A1E2B0E0E1E2F0E080818E7F8C93A1E29B
:10100000B0E0E1E2F0E080818D7F8C9389818823DC
:1010100029F0E2E2F0E08981880F8083A6E5B0E064
:10102000E6E5F0E0808184608C930F90CF91DF91B2
:101030000895DF93CF930F92CDB7DEB78983E2E2B5
:10104000F0E08981880F8083A6E5B0E0E6E5F0E076
:10105000808180648C93A6E5B0E0E6E5F0E08081D5
:1010600084608C930F90CF91DF910895DF93CF939D
:101070000F92CDB7DEB71982A6E5B0E0E6E5F0E065
:10108000808180648C93A6E5B0E0E6E5F0E08081A5
:1010900080628C93A6E5B0E0E6E5F0E080818068B0
:1010A0008C93E6E5F0E080818823DCF7E1E2F0E074
:1010B0008081882F90E0887F90708830910511F0B2
:1010C00081E0898389810F90CF91DF910895DF932B
:1010D000CF930F92CDB7DEB71982A6E5B0E0E6E573
:1010E000F0E08081846A8C93E6E5F0E080818823DB
:1010F000DCF7E1E2F0E08081882F90E0887F90705B
:101100008031910511F082E0898389810F90CF9120
:10111000DF910895DF93CF9300D00F92CDB7DEB764
:101120008B831A821982E3E2F0E08B81880F80833F
:10113000A3E2B0E0E3E2F0E080818E7F8C93A6E54D
:10114000B0E0E6E5F0E080818F7D8C93A6E5B0E02D
:10115000E6E5F0E0808180688C93E6E5F0E0808150
:101160008823DCF7E1E2F0E08081882F90E0887F3F
:1011700090708831910511F083E08A838A810F9005
:101180000F900F90CF91DF910895DF93CF9300D010
:10119000CDB7DEB78A831982E3E2F0E08A81880F57
:1011A0008083A3E2B0E0E3E2F0E0808181608C9391
:1011B000A6E5B0E0E6E5F0E080818F7D8C93A6E5C2
:1011C000B0E0E6E5F0E0808180688C93E6E5F0E051
:1011D00080818823DCF7E1E2F0E08081882F90E0D5
:1011E000887F90708034910511F084E08983898133
:1011F0000F900F90CF91DF910895DF93CF9300D0A0
:10120000CDB7DEB78A831982E3E2F0E08A8180837A
:10121000A6E5B0E0E6E5F0E0808180688C93E6E545
:10122000F0E080818823DCF7E1E2F0E08081882F24
:1012300090E0887F90708832910511F085E0898375
:1012400089810F900F90CF91DF910895DF93CF9315
:1012500000D000D0CDB7DEB79B838A836C83198220
:101260008C81813029F4E6E5F0E084EC808307C0CE
:101270008C81882321F4E6E5F0E084E88083E6E5CC
:10128000F0E080818823DCF7E1E2F0E08081882FC4
:1012900090E0887F90708035910519F086E0898311
:1012A00013C0E1E2F0E08081882F90E0887F9070A9
:1012B0008835910519F087E0898306C0E3E2F0E004
:1012C0008081EA81FB81808389810F900F900F904C
:1012D0000F90CF91DF910895DF93CF9300D00F92BD
:1012E000CDB7DEB79B838A831982A6E5B0E0E6E539
:1012F000F0E0808180688C93E6E5F0E080818823CF
:10130000DCF7E1E2F0E08081882F90E0887F907048
:101310008035910519F086E0898306C0E3E2F0E0AC
:101320008081EA81FB81808389810F900F900F90EB
:10133000CF91DF910895DF93CF93CDB7DEB7A6E5C8
:10134000B0E0E6E5F0E0808180618C93A6E5B0E056
:10135000E6E5F0E0808180688C93CF91DF9108957D
:10136000DF93CF93CDB7DEB7A3E5B0E0E3E5F0E0E0
:101370008081887F8C93A3E5B0E0E3E5F0E0808195
:1013800082608C93A3E5B0E0E3E5F0E08081877BA9
:101390008C93A3E5B0E0E3E5F0E0808188648C9372
:1013A000A3E5B0E0E3E5F0E080818F7C8C93A3E5DA
:1013B000B0E0E3E5F0E0808180628C93CF91DF9133
:1013C0000895DF93CF930F92CDB7DEB78983E2E51F
:1013D000F0E0898180830F90CF91DF910895DF93B2
:1013E000CF930F92CDB7DEB78983ECE5F0E089812A
:1013F00080830F90CF91DF910895DF93CF9300D03A
:101400000F92CDB7DEB789838981282F30E03B83E7
:101410002A838A819B81009731F02A813B81213088
:10142000310549F00FC0A9E5B0E0E9E5F0E08081C1
:1014300081608C9307C0A9E5B0E0E9E5F0E0808128
:1014400082608C930F900F900F90CF91DF91089551
:10145000DF93CF9300D00F92CDB7DEB78983898118
:10146000282F30E03B832A838A819B81009731F0CB
:101470002A813B812130310549F00FC0A9E5B0E058
:10148000E9E5F0E080818E7F8C9307C0A9E5B0E0AC
:10149000E9E5F0E080818D7F8C930F900F900F90A5
:1014A000CF91DF910895DF93CF9300D0CDB7DEB712
:1014B0009A83898389819A819093EB018093EA01D1
:1014C0000F900F90CF91DF910895DF93CF9300D0CD
:1014D000CDB7DEB79A83898389819A819093ED0194
:1014E0008093EC010F900F90CF91DF9108951F92A0
:1014F0000F920FB60F9211242F933F934F935F9348
:101500006F937F938F939F93AF93BF93EF93FF93CB
:10151000DF93CF93CDB7DEB78091EC019091ED01D1
:10152000009729F0E091EC01F091ED010995CF9140
:10153000DF91FF91EF91BF91AF919F918F917F913B
:101540006F915F914F913F912F910F900FBE0F9030
:101550001F9018951F920F920FB60F9211242F9380
:101560003F934F935F936F937F938F939F93AF932B
:10157000BF93EF93FF93DF93CF93CDB7DEB7809107
:10158000EA019091EB01009729F0E091EA01F091D6
:10159000EB010995CF91DF91FF91EF91BF91AF9151
:1015A0009F918F917F916F915F914F913F912F917B
:1015B0000F900FBE0F901F901895DF93CF93CDB76C
:1015C000DEB7AEE4B0E0EEE4F0E08081887F8C939B
:1015D000AEE4B0E0EEE4F0E0808182608C93AFE4B2
:1015E000B0E0EFE4F0E080818C7F8C93AFE4B0E07A
:1015F000EFE4F0E0808182608C93AEE4B0E0EEE452
:10160000F0E08081877E8C93AEE4B0E0EEE4F0E021
:10161000808188618C93AFE4B0E0EFE4F0E08081FA
:101620008F738C93AFE4B0E0EFE4F0E080818068EA
:101630008C93CF91DF910895DF93CF9300D0CDB7F6
:10164000DEB79A838983ECE4F0E089819A81918303
:1016500080830F900F90CF91DF910895DF93CF9308
:1016600000D0CDB7DEB79A838983EAE4F0E08981C0
:101670009A81918380830F900F90CF91DF9108958D
:10168000DF93CF9300D0CDB7DEB79A838983E8E4A8
:10169000F0E089819A81918380830F900F90CF91A0
:1016A000DF910895DF93CF9300D0CDB7DEB79A8353
:1016B0008983E6E4F0E089819A81918380830F90A9
:1016C0000F90CF91DF910895DF93CF9300D00F92C9
:1016D000CDB7DEB789838981282F30E03B832A8309
:1016E0008A819B818230910589F02A813B81233058
:1016F0003105A1F08A819B810097B9F4A9E5B0E09A
:10170000E9E5F0E0808184608C930FC0A9E5B0E04A
:10171000E9E5F0E0808180618C9307C0A9E5B0E045
:10172000E9E5F0E0808188608C930F900F900F9036
:10173000CF91DF910895DF93CF9300D00F92CDB773
:10174000DEB789838981282F30E03B832A838A8111
:101750009B818230910589F02A813B8123303105BC
:10176000A1F08A819B810097B9F4A9E5B0E0E9E591
:10177000F0E080818B7F8C930FC0A9E5B0E0E9E5B4
:10178000F0E080818F7E8C9307C0A9E5B0E0E9E5A9
:10179000F0E08081877F8C930F900F900F90CF9116
:1017A000DF910895DF93CF9300D00F92CDB7DEB7CE
:1017B00089838981282F30E03B832A838A819B811A
:1017C000009731F02A813B812130310549F00FC06B
:1017D000AEE4B0E0EEE4F0E0808180648C9307C07A
:1017E000AEE4B0E0EEE4F0E080818F7B8C930F906C
:1017F0000F900F90CF91DF910895DF93CF9300D09A
:101800000F92CDB7DEB789838981282F30E03B83E3
:101810002A838A819B81009731F02A813B81213084
:10182000310549F00FC0A9E5B0E0E9E5F0E08081BD
:1018300080628C9307C0A9E5B0E0E9E5F0E0808123
:101840008F7D8C930F900F900F90CF91DF91089523
:10185000DF93CF9300D0CDB7DEB79A838983898198
:101860009A819093EF018093EE010F900F90CF91AA
:10187000DF910895DF93CF9300D0CDB7DEB79A8381
:10188000898389819A819093F1018093F0010F906F
:101890000F90CF91DF910895DF93CF9300D0CDB714
:1018A000DEB79A83898389819A819093F30180932B
:1018B000F2010F900F90CF91DF910895DF93CF93B6
:1018C00000D0CDB7DEB79A83898389819A819093BE
:1018D000F5018093F4010F900F90CF91DF9108955F
:1018E0001F920F920FB60F9211242F933F934F9395
:1018F0005F936F937F938F939F93AF93BF93EF9378
:10190000FF93DF93CF93CDB7DEB78091F401909131
:10191000F501009729F0E091F401F091F5010995A6
:10192000CF91DF91FF91EF91BF91AF919F918F91F7
:101930007F916F915F914F913F912F910F900FBECB
:101940000F901F9018951F920F920FB60F921124AF
:101950002F933F934F935F936F937F938F939F93B7
:10196000AF93BF93EF93FF93DF93CF93CDB7DEB7E2
:101970008091F0019091F101009729F0E091F00140
:10198000F091F1010995CF91DF91FF91EF91BF9116
:10199000AF919F918F917F916F915F914F913F9107
:1019A0002F910F900FBE0F901F9018951F920F92BE
:1019B0000FB60F9211242F933F934F935F936F9322
:1019C0007F938F939F93AF93BF93EF93FF93DF9397
:1019D000CF93CDB7DEB78091F2019091F3010097DC
:1019E00029F0E091F201F091F3010995CF91DF9197
:1019F000FF91EF91BF91AF919F918F917F916F91E7
:101A00005F914F913F912F910F900FBE0F901F90BC
:101A100018951F920F920FB60F9211242F933F9398
:101A20004F935F936F937F938F939F93AF93BF93E6
:101A3000EF93FF93DF93CF93CDB7DEB78091EE01A5
:101A40009091EF01009729F0E091EE01F091EF0104
:101A50000995CF91DF91FF91EF91BF91AF919F9148
:101A60008F917F916F915F914F913F912F910F9047
:101A70000FBE0F901F901895DF93CF93CDB7DEB7B1
:101A8000ECE4F0E080819181CF91DF910895DF93C4
:101A9000CF93CDB7DEB7E6E4F0E080819181CF91BE
:101AA000DF910895DF93CF93CDB7DEB7E2E5F0E0A5
:101AB0008081CF91DF910895DF93CF9300D000D044
:101AC00000D0CDB7DEB79E838D83A5E4B0E0E5E41A
:101AD000F0E08081877B8C93A5E4B0E0E5E4F0E062
:101AE000808188608C93A5E4B0E0E5E4F0E080813B
:101AF000887F8C93A5E4B0E0E5E4F0E0808183602A
:101B00008C93ECE5F0E08DE78083E5E4F0E0808104
:101B10008C83ECE5F0E080818B831A82198217C0F8
:101B2000E8E5F0E080819181807890700097C1F3C2
:101B3000A8E5B0E0E8E5F0E0808191818068119649
:101B40009C938E9389819A8101969A8389832981B6
:101B50003A818D819E818217930710F7E5E4F0E0CA
:101B60008C818083ECE5F0E08B81808326960FB634
:101B7000F894DEBF0FBECDBFCF91DF910895DF9304
:101B8000CF93CDB7DEB7AEE2B0E0EEE2F0E0808119
:101B900081608C93ADE2B0E0EDE2F0E080818D7F7A
:101BA0008C93ADE2B0E0EDE2F0E080818E7F8C932B
:101BB000ADE2B0E0EDE2F0E08081877F8C93ADE2B2
:101BC000B0E0EDE2F0E080818B7F8C93CF91DF91EC
:101BD0000895DF93CF930F92CDB7DEB78983EFE2FD
:101BE000F0E089818083EEE2F0E080818823DCF7F9
:101BF000EFE2F0E080810F90CF91DF910895DF93C5
:101C0000CF9300D0CDB7DEB79A83898389819A813B
:101C10009093F7018093F6010F900F90CF91DF9191
:101C200008951F920F920FB60F9211242F933F9396
:101C30004F935F936F937F938F939F93AF93BF93D4
:101C4000EF93FF93DF93CF93CDB7DEB78091F6018B
:101C50009091F701009761F0EFE2F0E080818093CE
:101C6000F801E091F601F091F70188EF91E0099514
:101C7000CF91DF91FF91EF91BF91AF919F918F91A4
:101C80007F916F915F914F913F912F910F900FBE78
:101C90000F901F901895DF93CF93CDB7DEB7AFE5C8
:101CA000B0E0EFE5F0E0808180688C93CF91DF9128
:101CB0000895DF93CF93CDB7DEB7AFE5B0E0EFE5A2
:101CC000F0E080818F778C93CF91DF910895DF933F
:101CD000CF93CDB7DEB7ABE5B0E0EBE5F0E08081C8
:101CE00080648C93A5E5B0E0E5E5F0E0808181605B
:101CF0008C93A5E5B0E0E5E5F0E0808182608C930F
:101D0000ABE5B0E0EBE5F0E080818F7B8C93ABE559
:101D1000B0E0EBE5F0E080818F7B8C93CF91DF9199
:101D20000895DF93CF93CDB7DEB72A970FB6F89417
:101D3000DEBF0FBECDBF89836A838981282F30E043
:101D40003A87298789859A858130910509F465C08C
:101D500029853A852330310509F4B9C089859A85EA
:101D6000009709F0D3C08A81282F30E038872F836D
:101D70008F8198858230910529F12F813885233014
:101D8000310534F48F8198858130910561F0BEC0B2
:101D90002F8138852330310519F18F819885843062
:101DA000910561F1B3C0A5E5B0E0E5E5F0E0808123
:101DB00081608C93A5E5B0E0E5E5F0E0808182608C
:101DC0008C93A4C0A5E5B0E0E5E5F0E080818E7FCE
:101DD0008C93A5E5B0E0E5E5F0E0808182608C932E
:101DE000A5E5B0E0E5E5F0E0808181608C93A5E5B4
:101DF000B0E0E5E5F0E080818D7F8C93A5E5B0E073
:101E0000E5E5F0E080818E7F8C93A5E5B0E0E5E527
:101E1000F0E080818D7F8C9379C08A81282F30E01B
:101E20003E832D838D819E818230910529F12D8104
:101E30003E812330310534F48D819E8181309105BE
:101E400061F064C02D813E812330310519F18D810F
:101E50009E818430910561F159C0A5E5B0E0E5E5CA
:101E6000F0E0808184608C93A5E5B0E0E5E5F0E0EA
:101E7000808188608C934AC0A5E5B0E0E5E5F0E09C
:101E800080818B7F8C93A5E5B0E0E5E5F0E0808173
:101E900088608C93A5E5B0E0E5E5F0E080818460A2
:101EA0008C93A5E5B0E0E5E5F0E08081877F8C9339
:101EB000A5E5B0E0E5E5F0E080818B7F8C93A5E5BA
:101EC000B0E0E5E5F0E08081877F8C931FC08A81D8
:101ED000282F30E03C832B838B819C8181309105BE
:101EE00031F02B813C812230310549F00FC0A4E54F
:101EF000B0E0E4E5F0E0808180648C9307C0A5E564
:101F0000B0E0E5E5F0E080818F7B8C932A960FB6F8
:101F1000F894DEBF0FBECDBFCF91DF910895DF9360
:101F2000CF93CDB7DEB72A970FB6F894DEBF0FBEBA
:101F3000CDBF89836A838981282F30E03A8729873A
:101F400089859A858130910551F129853A8523301B
:101F5000310509F443C089859A85009709F05CC072
:101F60008A81282F30E038872F838F8198850097CA
:101F700031F02F8138852130310549F04DC0ABE576
:101F8000B0E0EBE5F0E0808180648C9345C0ABE588
:101F9000B0E0EBE5F0E080818F7B8C933DC08A81DF
:101FA000282F30E03E832D838D819E81009731F074
:101FB0002D813E812130310549F02EC0ABE5B0E0E6
:101FC000EBE5F0E0808180688C9326C0ABE5B0E063
:101FD000EBE5F0E080818F778C931EC08A81282FFB
:101FE00030E03C832B838B819C81009731F02B81E7
:101FF0003C812130310549F00FC0ABE5B0E0EBE5A5
:10200000F0E0808180628C9307C0ABE5B0E0EBE547
:10201000F0E080818F7D8C932A960FB6F894DEBF16
:102020000FBECDBFCF91DF910895DF93CF9300D046
:1020300000D0CDB7DEB78A8319828A81282F30E09D
:102040003C832B838B819C818130910599F02B817E
:102050003C8123303105B1F08B819C810097D1F414
:10206000EAE5F0E08081829586958695837081709F
:10207000898310C0EAE5F0E08081881F8827881FE7
:10208000898308C0EAE5F0E08081829586958770B3
:102090008170898389810F900F900F900F90CF915D
:1020A000DF910895DF93CF9300D0CDB7DEB79A8349
:1020B000898389819A819093FA018093F9010F9025
:1020C0000F90CF91DF9108951F920F920FB60F924C
:1020D00011242F933F934F935F936F937F938F932D
:1020E0009F93AF93BF93EF93FF93DF93CF93CDB7BE
:1020F000DEB78091F9019091FA01009729F0E09103
:10210000F901F091FA010995CF91DF91FF91EF91DB
:10211000BF91AF919F918F917F916F915F914F91FF
:102120003F912F910F900FBE0F901F901895DF9346
:10213000CF9300D000D00F92CDB7DEB789836A83EA
:102140004B838981843008F0E8C08A81883008F0A8
:10215000E4C08B81823008F0E0C08981282F30E014
:102160003D832C838C819D818130910509F447C08A
:102170002C813D81223031052CF48C819D8100978A
:1021800071F0CBC02C813D812230310509F467C04C
:102190008C819D818330910509F491C0BEC08B81F3
:1021A0008130A1F4AAE3B0E0EAE3F0E08081482FB7
:1021B0008A81282F30E081E090E0022E02C0880F53
:1021C000991F0A94E2F7842B8C93A7C08B818823F4
:1021D00009F0A3C0AAE3B0E0EAE3F0E08081482F71
:1021E0008A81282F30E081E090E0022E02C0880F23
:1021F000991F0A94E2F7809584238C938EC08B817B
:102200008130A1F4A7E3B0E0E7E3F0E08081482F5C
:102210008A81282F30E081E090E0022E02C0880FF2
:10222000991F0A94E2F7842B8C9377C08B818823C3
:1022300009F073C0A7E3B0E0E7E3F0E08081482F46
:102240008A81282F30E081E090E0022E02C0880FC2
:10225000991F0A94E2F7809584238C935EC08B814A
:102260008130A1F4A4E3B0E0E4E3F0E08081482F02
:102270008A81282F30E081E090E0022E02C0880F92
:10228000991F0A94E2F7842B8C9347C08B81882393
:1022900009F043C0A4E3B0E0E4E3F0E08081482F1C
:1022A0008A81282F30E081E090E0022E02C0880F62
:1022B000991F0A94E2F7809584238C932EC08B811A
:1022C0008130A1F4A1E3B0E0E1E3F0E08081482FA8
:1022D0008A81282F30E081E090E0022E02C0880F32
:1022E000991F0A94E2F7842B8C9317C08B81882363
:1022F000A1F4A1E3B0E0E1E3F0E08081482F8A811E
:10230000282F30E081E090E0022E02C0880F991F54
:102310000A94E2F7809584238C930F900F900F908E
:102320000F900F90CF91DF910895DF93CF9300D05E
:1023300000D00F92CDB7DEB789836A834B83898142
:10234000843008F0E8C08A81883008F0E4C08B81CE
:10235000823008F0E0C08981282F30E03D832C8353
:102360008C819D818130910509F447C02C813D818C
:10237000223031052CF48C819D81009771F0CBC007
:102380002C813D812230310509F467C08C819D810B
:102390008330910509F491C0BEC08B818130A1F4D6
:1023A000ABE3B0E0EBE3F0E08081482F8A81282F97
:1023B00030E081E090E0022E02C0880F991F0A945D
:1023C000E2F7842B8C93A7C08B81882309F0A3C0EC
:1023D000ABE3B0E0EBE3F0E08081482F8A81282F67
:1023E00030E081E090E0022E02C0880F991F0A942D
:1023F000E2F7809584238C938EC08B818130A1F489
:10240000A8E3B0E0E8E3F0E08081482F8A81282F3C
:1024100030E081E090E0022E02C0880F991F0A94FC
:10242000E2F7842B8C9377C08B81882309F073C0EB
:10243000A8E3B0E0E8E3F0E08081482F8A81282F0C
:1024400030E081E090E0022E02C0880F991F0A94CC
:10245000E2F7809584238C935EC08B818130A1F458
:10246000A5E3B0E0E5E3F0E08081482F8A81282FE2
:1024700030E081E090E0022E02C0880F991F0A949C
:10248000E2F7842B8C9347C08B81882309F043C0EB
:10249000A5E3B0E0E5E3F0E08081482F8A81282FB2
:1024A00030E081E090E0022E02C0880F991F0A946C
:1024B000E2F7809584238C932EC08B818130A1F428
:1024C000A2E3B0E0E2E3F0E08081482F8A81282F88
:1024D00030E081E090E0022E02C0880F991F0A943C
:1024E000E2F7842B8C9317C08B818823A1F4A2E39D
:1024F000B0E0E2E3F0E08081482F8A81282F30E0CD
:1025000081E090E0022E02C0880F991F0A94E2F742
:10251000809584238C930F900F900F900F900F90C5
:10252000CF91DF910895DF93CF93CDB7DEB72D978D
:102530000FB6F894DEBF0FBECDBF89836A834B838D
:102540008981843008F054C18A81883008F050C1F4
:102550008B81823008F04CC18981282F30E03D8783
:102560002C878C859D858130910509F462C02C856E
:102570003D85223031052CF48C859D85009771F0C6
:1025800037C12C853D852230310509F49DC08C85ED
:102590009D858330910509F4E2C02AC18B81282FE3
:1025A00030E03B872A878A859B85009769F12A85D9
:1025B0003B852130310509F01BC1AAE3B0E0EAE315
:1025C000F0E08081482F8A81282F30E081E090E080
:1025D00002C0880F991F2A95E2F7809584238C9377
:1025E000ABE3B0E0EBE3F0E08081482F8A81282F55
:1025F00030E081E090E0022E02C0880F991F0A941B
:10260000E2F7842B8C93F4C0ABE3B0E0EBE3F0E0B3
:102610008081482F8A81282F30E081E090E0022ECF
:1026200002C0880F991F0A94E2F7809584238C9347
:10263000DFC08B81282F30E03987288788859985EE
:10264000009769F1288539852130310509F0D0C01E
:10265000A7E3B0E0E7E3F0E08081482F8A81282FEC
:1026600030E081E090E002C0880F991F2A95E2F7E0
:10267000809584238C93A8E3B0E0E8E3F0E08081C8
:10268000482F8A81282F30E081E090E0022E02C09E
:10269000880F991F0A94E2F7842B8C93A9C0A8E3B2
:1026A000B0E0E8E3F0E08081482F8A81282F30E015
:1026B00081E090E0022E02C0880F991F0A94E2F791
:1026C000809584238C9394C08B81282F30E03F83A6
:1026D0002E838E819F81009769F12E813F81213069
:1026E000310509F085C0A4E3B0E0E4E3F0E08081C7
:1026F000482F8A81282F30E081E090E002C0880FC7
:10270000991F2A95E2F7809584238C93A5E3B0E086
:10271000E5E3F0E08081482F8A81282F30E081E0D6
:1027200090E0022E02C0880F991F0A94E2F7842BD2
:102730008C935EC0A5E3B0E0E5E3F0E08081482F34
:102740008A81282F30E081E090E0022E02C0880FBD
:10275000991F0A94E2F7809584238C9349C08B815A
:10276000282F30E03D832C838C819D81009761F17F
:102770002C813D8121303105D9F5A1E3B0E0E1E3C1
:10278000F0E08081482F8A81282F30E081E090E0BE
:1027900002C0880F991F2A95E2F7809584238C93B5
:1027A000A2E3B0E0E2E3F0E08081482F8A81282FA5
:1027B00030E081E090E0022E02C0880F991F0A9459
:1027C000E2F7842B8C9314C0A2E3B0E0E2E3F0E0E4
:1027D0008081482F8A81282F30E081E090E0022E0E
:1027E00002C0880F991F0A94E2F7809584238C9386
:1027F0002D960FB6F894DEBF0FBECDBFCF91DF91FF
:102800000895DF93CF9300D000D00F92CDB7DEB7FD
:102810008A836B8319828A81843008F06BC08B8134
:10282000883008F067C08A81282F30E03D832C83F0
:102830004C815D814130510541F18C819D81823017
:10284000910534F42C813D812115310561F052C090
:102850004C815D814230510551F18C819D818330E5
:102860009105B9F147C0E9E3F0E08081282F30E01D
:102870008B81882F90E0A90102C0559547958A95D4
:10288000E2F7CA018170898335C0E6E3F0E0808118
:10289000282F30E08B81882F90E0A90102C0559548
:1028A00047958A95E2F7CA018170898323C0E3E3E3
:1028B000F0E08081282F30E08B81882F90E0A90103
:1028C00002C0559547958A95E2F7CA0181708983C0
:1028D00011C0E0E3F0E08081282F30E08B81882F69
:1028E00090E0A90102C0559547958A95E2F7CA0183
:1028F0008170898389810F900F900F900F900F90B6
:10290000CF91DF910895DF93CF9300D000D0CDB762
:10291000DEB789836A838981843090F58981282F85
:1029200030E03C832B838B819C8181309105D1F0F9
:102930002B813C81223031052CF48B819C810097C6
:1029400061F01EC02B813C812230310581F08B81EA
:102950009C818330910581F013C0EAE3F0E08A8125
:1029600080830EC0E7E3F0E08A81808309C0E4E35E
:10297000F0E08A81808304C0E1E3F0E08A81808313
:102980000F900F900F900F90CF91DF910895DF93EC
:10299000CF9300D000D0CDB7DEB789836A83898119
:1029A000843090F58981282F30E03C832B838B8104
:1029B0009C8181309105D1F02B813C812230310501
:1029C0002CF48B819C81009761F01EC02B813C818F
:1029D0002230310581F08B819C818330910581F01B
:1029E00013C0EBE3F0E08A8180830EC0E8E3F0E0FF
:1029F0008A81808309C0E5E3F0E08A81808304C096
:102A0000E2E3F0E08A8180830F900F900F900F90A7
:102A1000CF91DF910895DF93CF9300D000D0CDB751
:102A2000DEB789836A838981843008F05EC08A8139
:102A3000823008F05AC08981282F30E03C832B83F4
:102A40008B819C818130910521F12B813C81223049
:102A500031052CF48B819C81009761F046C02B815D
:102A60003C812230310521F18B819C81833091059D
:102A700071F13BC08A81813029F4EAE3F0E08FEF05
:102A8000808333C08A81882381F5EAE3F0E01082F5
:102A90002CC08A81813029F4E7E3F0E08FEF808356
:102AA00024C08A81882309F5E7E3F0E010821DC085
:102AB0008A81813029F4E4E3F0E08FEF808315C050
:102AC0008A81882391F4E4E3F0E010820EC08A81C9
:102AD000813029F4E1E3F0E08FEF808306C08A8142
:102AE000882319F4E1E3F0E010820F900F900F902B
:102AF0000F90CF91DF910895DF93CF9300D000D056
:102B0000CDB7DEB789836A838981843008F05EC0DF
:102B10008A81823008F05AC08981282F30E03C83B6
:102B20002B838B819C818130910521F12B813C810C
:102B3000223031052CF48B819C81009761F046C0D6
:102B40002B813C812230310521F18B819C818330A6
:102B5000910571F13BC08A81813029F4EBE3F0E00B
:102B60008FEF808333C08A81882381F5EBE3F0E027
:102B700010822CC08A81813029F4E8E3F0E08FEFE5
:102B8000808324C08A81882309F5E8E3F0E010827D
:102B90001DC08A81813029F4E5E3F0E08FEF808366
:102BA00015C08A81882391F4E5E3F0E010820EC01D
:102BB0008A81813029F4E2E3F0E08FEF808306C060
:102BC0008A81882319F4E2E3F0E010820F900F90DD
:102BD0000F900F90CF91DF910895DF93CF9300D0A6
:102BE00000D0CDB7DEB78A8319828A81843008F09D
:102BF0003EC08A81282F30E03C832B838B819C81CF
:102C000081309105E9F02B813C81223031052CF493
:102C10008B819C81009761F02AC02B813C812230FE
:102C20003105B1F08B819C8183309105C9F01FC0C3
:102C3000E9E3F0E080818F3FD1F48FEF898317C003
:102C4000E6E3F0E080818F3F91F48FEF89830FC03E
:102C5000E3E3F0E080818F3F51F48FEF898307C079
:102C6000E0E3F0E080818F3F11F48FEF8983898169
:102C70000F900F900F900F90CF91DF910895DF93F9
:102C8000CF9300D00F92CDB7DEB78983898184308E
:102C900008F03EC08981282F30E03B832A838A8157
:102CA0009B8181309105E9F02A813B8122303105F9
:102CB0002CF48A819B81009761F02AC02A813B8194
:102CC00022303105B1F08A819B8183309105C9F0B2
:102CD0001FC0EAE3F0E01082EBE3F0E08FEF8083C7
:102CE00017C0E7E3F0E01082E8E3F0E08FEF8083C5
:102CF0000FC0E4E3F0E01082E5E3F0E08FEF8083C3
:102D000007C0E1E3F0E01082E2E3F0E08FEF8083C0
:102D10000F900F900F90CF91DF910895DF93CF9395
:102D2000CDB7DEB7A6E2B0E0E6E2F0E08081887FD2
:102D30008C93A6E2B0E0E6E2F0E0808186608C93BE
:102D4000A7E2B0E0E7E2F0E0808180628C93A7E246
:102D5000B0E0E7E2F0E08081807E8C93A7E2B0E013
:102D6000E7E2F0E080818C93A6E2B0E0E6E2F0E0FA
:102D700080818F7D8C93A6E2B0E0E6E2F0E0808176
:102D80008F738C93A6E2B0E0E6E2F0E0808180648D
:102D90008C93A6E2B0E0E6E2F0E0808180688C935C
:102DA000CF91DF910895DF93CF930F92CDB7DEB728
:102DB0008983A7E2B0E0E7E2F0E08081807E8C9337
:102DC000A7E2B0E0E7E2F0E090818981892B8C9363
:102DD000A6E2B0E0E6E2F0E0808180648C93E6E277
:102DE000F0E0808182958F70882F90E081709070E4
:102DF0000097A9F3A6E2B0E0E6E2F0E0808180610E
:102E00008C93E5E2F0E080810F90CF91DF910895FF
:102E10000F931F93DF93CF93CDB7DEB72A970FB6EB
:102E2000F894DEBF0FBECDBF9C838B837E836D8302
:102E30004F8328871A8709871A8219828F81282F42
:102E400030E08885882F90E0A901481B590BCA0102
:102E5000AC012B813C818D819E81281B390BCA01DD
:102E6000B9010E946A29CB018A838A81282F30E028
:102E700089859A85AC01249FC001259F900D349FC0
:102E8000900D1124898389812A960FB6F894DEBFAC
:102E90000FBECDBFCF91DF911F910F910895DF93AA
:102EA000CF9300D00F92CDB7DEB789837B836A833F
:102EB0008A819B819093FC018093FB01A7E2B0E0A3
:102EC000E7E2F0E08081807E8C93A7E2B0E0E7E269
:102ED000F0E090818981892B8C93A6E2B0E0E6E254
:102EE000F0E0808188608C93A6E2B0E0E6E2F0E05A
:102EF000808180648C930F900F900F90CF91DF9121
:102F000008951F920F920FB60F9211242F933F93A3
:102F10004F935F936F937F938F939F93AF93BF93E1
:102F2000EF93FF93DF93CF93CDB7DEB78091FB0193
:102F30009091FC01009761F0E5E2F0E080818093E0
:102F4000FD01E091FB01F091FC018DEF91E009950D
:102F5000CF91DF91FF91EF91BF91AF919F918F91B1
:102F60007F916F915F914F913F912F910F900FBE85
:102F70000F901F901895DF93CF93CDB7DEB70E94C7
:102F8000DD0A0E944B0E80E00E94FD0B80E00E9453
:102F9000D20B83E066E040E00E94971083E061E09E
:102FA00041E00E949710CF91DF910895DF93CF9376
:102FB000CDB7DEB7EA970FB6F894DEBF0FBECDBF30
:102FC0001AAA19AA1CAA1BAA1EAA1DAA18AE1FAAD1
:102FD0001AAE19AEA8E5B0E0E8E5F0E08081918195
:102FE000806211969C938E9383E061E040E00E94A2
:102FF000951180E090E0A0E0B0E48DA79EA7AFA778
:10300000B8AB6DA57EA58FA598A92BEA3AEA4AE24E
:1030100050E40E941F02DC01CB0189A79AA7ABA74D
:10302000BCA769A57AA58BA59CA520E030E040E867
:103030005FE30E94250488231CF481E088A791C0E7
:1030400069A57AA58BA59CA520E030E04FE753E465
:103050000E94C50318160CF07BC06DA57EA58FA538
:1030600098A920E030E04AE754E40E941903DC010B
:10307000CB018CA39DA3AEA3BFA36CA17DA18EA108
:103080009FA120E030E04AEF54E40E941F02DC01DF
:10309000CB0188A399A3AAA3BBA368A179A18AA104
:1030A0009BA120E030E040E85FE30E9425048823F4
:1030B0002CF481E090E09F8F8E8F3FC068A179A1B2
:1030C0008AA19BA120E03FEF4FE757E40E94C50390
:1030D00018164CF56CA17DA18EA19FA120E030E0D7
:1030E00040E251E40E941F02DC01CB01BC01CD0192
:1030F0000E944900DC01CB019F8F8E8F0FC088ECAE
:1031000090E09D8F8C8F8C8D9D8D0197F1F79D8F19
:103110008C8F8E8D9F8D01979F8F8E8F8E8D9F8D23
:10312000009769F724C068A179A18AA19BA10E9498
:103130004900DC01CB019F8F8E8F8E8D9F8D9B8FE1
:103140008A8F8A8D9B8D0197F1F79B8F8A8F0FC095
:1031500069A57AA58BA59CA50E944900DC01CB013D
:1031600088A788A5898F898D8A95F1F7898F83E053
:1031700061E041E00E94951180E090E0A0E2B1E4BE
:103180008D8B9E8BAF8BB88F6D897E898F89988D43
:103190002BEA3AEA4AE250E40E941F02DC01CB012A
:1031A000898B9A8BAB8BBC8B69897A898B899C893B
:1031B00020E030E040E85FE30E94250488231CF40F
:1031C00081E0888B91C069897A898B899C8920E00C
:1031D00030E04FE753E40E94C50318160CF07BC0A3
:1031E0006D897E898F89988D20E030E04AE754E42C
:1031F0000E941903DC01CB018C879D87AE87BF87B6
:103200006C857D858E859F8520E030E04AEF54E413
:103210000E941F02DC01CB0188879987AA87BB87A0
:10322000688579858A859B8520E030E040E85FE30A
:103230000E94250488232CF481E090E09F838E83F4
:103240003FC0688579858A859B8520E03FEF4FE701
:1032500057E40E94C50318164CF56C857D858E8554
:103260009F8520E030E040E251E40E941F02DC0133
:10327000CB01BC01CD010E944900DC01CB019F8341
:103280008E830FC088EC90E09D838C838C819D8120
:103290000197F1F79D838C838E819F8101979F8396
:1032A0008E838E819F81009769F724C06885798518
:1032B0008A859B850E944900DC01CB019F838E8318
:1032C0008E819F819B838A838A819B810197F1F7FD
:1032D0009B838A830FC069897A898B899C890E9424
:1032E0004900DC01CB01888B8889898389818A9593
:1032F000F1F7898383E061E040E00E94951180E06E
:103300000E94D20BE8E5F0E080819181807290709C
:103310000097C1F3E6E4F0E08081918198AF8FAB34
:10332000A8E5B0E0E8E5F0E0808191818062119647
:103330009C938E9381E00E94D20BE8E5F0E08081BF
:103340009181807290700097C1F3E6E4F0E0808193
:1033500091819AAF89AFA8E5B0E0E8E5F0E080811F
:103360009181806211969C938E93ECE4F0E011823F
:10337000108281E00E94FD0B29AD3AAD8FA998AD76
:10338000A901481B590BCA019AAB89AB89A99AA913
:10339000CC01A0E0B0E028E237E840E050E0BC011A
:1033A000CD010E944B29DC01CB0120E034E244EF47
:1033B00050E0BC01CD010E947E29DA01C9019EAB1B
:1033C0008DAB8DA99EA9EA960FB6F894DEBF0FBE0D
:1033D000CDBFCF91DF910895DF93CF9300D000D080
:1033E0000F92CDB7DEB789836A834B83898184309E
:1033F00090F58A818A3078F58B81823060F58981F9
:10340000882F90E0009739F58B81282F30E03D839D
:103410002C838C819D81009731F02C813D8121305E
:10342000310561F018C08A81882F90E0FC01EF53CC
:10343000FE4F908180E0692F0E94C7148A81882FF7
:1034400090E0FC01EF53FE4F8081982F909580E033
:10345000692F0E94C7140F900F900F900F900F903C
:10346000CF91DF910895DF93CF93CDB7DEB780E0A2
:103470006FE00E948314CF91DF910895DF93CF9383
:10348000CDB7DEB7AE970FB6F894DEBF0FBECDBF97
:103490009EA78DA78091FE01282F30E08DA59EA5C7
:1034A000B9010E946A29CB01909300028093FF0129
:1034B0001CA61BA61CA61BA6ABC180E060E041E0D9
:1034C0000E94951180E061E040E00E94951180E04B
:1034D00062E040E00E94951180E063E040E00E94DD
:1034E000951180E090E0A0E2B1E48FA398A7A9A78E
:1034F000BAA76FA178A589A59AA520E030E04AEF88
:1035000054E40E941F02DC01CB018BA39CA3ADA35A
:10351000BEA36BA17CA18DA19EA120E030E040E87C
:103520005FE30E94250488232CF481E090E09AA3B5
:1035300089A33FC06BA17CA18DA19EA120E03FEF9C
:103540004FE757E40E94C50318164CF56FA178A504
:1035500089A59AA520E030E040E251E40E941F02D4
:10356000DC01CB01BC01CD010E944900DC01CB0193
:103570009AA389A30FC088EC90E098A38F8F8F8DBA
:1035800098A10197F1F798A38F8F89A19AA101972C
:103590009AA389A389A19AA1009769F714C06BA186
:1035A0007CA18DA19EA10E944900DC01CB019AA3C0
:1035B00089A389A19AA19E8F8D8F8D8D9E8D019754
:1035C000F1F79E8F8D8F80E060E040E00E949511C2
:1035D00080E061E041E00E94951180E062E040E01F
:1035E0000E94951180E063E040E00E94951180E028
:1035F00090E0A0E2B1E4898F9A8FAB8FBC8F698D88
:103600007A8D8B8D9C8D20E030E04AEF54E40E944F
:103610001F02DC01CB018D8B9E8BAF8BB88F6D8928
:103620007E898F89988D20E030E040E85FE30E943A
:10363000250488232CF481E090E09C8B8B8B3FC089
:103640006D897E898F89988D20E03FEF4FE757E4A1
:103650000E94C50318164CF5698D7A8D8B8D9C8D53
:1036600020E030E040E251E40E941F02DC01CB0187
:10367000BC01CD010E944900DC01CB019C8B8B8BEE
:103680000FC088EC90E09A8B898B89899A89019781
:10369000F1F79A8B898B8B899C8901979C8B8B8BFB
:1036A0008B899C89009769F714C06D897E898F8901
:1036B000988D0E944900DC01CB019C8B8B8B8B8900
:1036C0009C89988B8F878F8598890197F1F7988BC4
:1036D0008F8780E060E040E00E94951180E061E02B
:1036E00040E00E94951180E062E041E00E94951167
:1036F00080E063E040E00E94951180E090E0A0E26D
:10370000B1E48B879C87AD87BE876B857C858D8573
:103710009E8520E030E04AEF54E40E941F02DC0165
:10372000CB018F839887A987BA876F817885898530
:103730009A8520E030E040E85FE30E94250488237A
:103740002CF481E090E09E838D833FC06F8178856B
:1037500089859A8520E03FEF4FE757E40E94C50333
:1037600018164CF56B857C858D859E8520E030E0B4
:1037700040E251E40E941F02DC01CB01BC01CD01FB
:103780000E944900DC01CB019E838D830FC088EC31
:1037900090E09C838B838B819C810197F1F79C83C4
:1037A0008B838D819E8101979E838D838D819E81E8
:1037B000009769F714C06F81788589859A850E9482
:1037C0004900DC01CB019E838D838D819E819A838C
:1037D000898389819A810197F1F79A83898380E0AF
:1037E00060E040E00E94951180E061E040E00E94CE
:1037F000951180E062E040E00E94951180E063E076
:1038000041E00E9495118BA59CA501969CA78BA7D2
:103810008091FF01909100029C0136952795369585
:1038200027958BA59CA52817390708F046CEAE969C
:103830000FB6F894DEBF0FBECDBFCF91DF910895D4
:103840000F931F93DF93CF93CDB7DEB7C656D0400B
:103850000FB6F894DEBF0FBECDBFFE01EB59FF4F90
:10386000918380838091FE01282F30E0FE01EB5987
:10387000FF4F80819181B9010E946A29CB01909309
:1038800000028093FF01FE01ED59FF4F118210826B
:10389000FE01ED59FF4F118210825FC480E060E0AD
:1038A00041E00E94951180E061E040E00E949511A6
:1038B00080E062E040E00E94951180E063E040E03B
:1038C0000E949511FE01E15AFF4F80E090E0A0E2D6
:1038D000B1E480839183A283B3838E01055A1F4F85
:1038E000FE01E15AFF4F608171818281938120E066
:1038F00030E04AEF54E40E941F02DC01CB01F801E2
:1039000080839183A283B383FE01E55AFF4F6081D8
:1039100071818281938120E030E040E85FE30E9482
:103920002504882344F4FE01E75AFF4F81E090E02C
:103930009183808364C0FE01E55AFF4F60817181ED
:103940008281938120E03FEF4FE757E40E94C50357
:1039500018160CF043C0FE01E15AFF4F60817181DF
:103960008281938120E030E040E251E40E941F0216
:10397000DC01CB018E01075A1F4FBC01CD010E9413
:103980004900DC01CB01F801918380831FC0FE0157
:10399000E95AFF4F88EC90E091838083FE01E95A59
:1039A000FF4F808191810197F1F7FE01E95AFF4FA6
:1039B00091838083DE01A75ABF4FFE01E75AFF4F74
:1039C00080819181019711969C938E93FE01E75A15
:1039D000FF4F808191810097D1F627C08E01075A51
:1039E0001F4FFE01E55AFF4F6081718182819381F3
:1039F0000E944900DC01CB01F80191838083DE0144
:103A0000AB5ABF4FFE01E75AFF4F808191818D93E2
:103A10009C93FE01EB5AFF4F808191810197F1F752
:103A2000FE01EB5AFF4F9183808380E060E041E02C
:103A30000E94951180E061E041E00E94951180E0D4
:103A400062E040E00E94951180E063E040E00E9467
:103A50009511FE01EF5AFF4F80E090E0A0E2B1E443
:103A600080839183A283B3838E01035B1F4FFE018A
:103A7000EF5AFF4F608171818281938120E030E0B5
:103A80004AEF54E40E941F02DC01CB01F80180835D
:103A90009183A283B383FE01E35BFF4F6081718159
:103AA0008281938120E030E040E85FE30E942504BA
:103AB000882344F4FE01E55BFF4F81E090E09183B1
:103AC000808364C0FE01E35BFF4F6081718182816E
:103AD000938120E03FEF4FE757E40E94C50318169B
:103AE0000CF043C0FE01EF5AFF4F6081718182816B
:103AF000938120E030E040E251E40E941F02DC01AB
:103B0000CB018E01055B1F4FBC01CD010E94490016
:103B1000DC01CB01F801918380831FC0FE01E75BCC
:103B2000FF4F88EC90E091838083FE01E75BFF4FBD
:103B3000808191810197F1F7FE01E75BFF4F91834F
:103B40008083DE01A55BBF4FFE01E55BFF4F8081F7
:103B50009181019711969C938E93FE01E55BFF4F37
:103B6000808191810097D1F627C08E01055B1F4FA0
:103B7000FE01E35BFF4F60817181828193810E942E
:103B80004900DC01CB01F80191838083DE01A95B50
:103B9000BF4FFE01E55BFF4F808191818D939C9328
:103BA000FE01E95BFF4F808191810197F1F7FE01F2
:103BB000E95BFF4F9183808380E060E040E00E94FA
:103BC000951180E061E041E00E94951180E062E0A3
:103BD00040E00E94951180E063E040E00E94951172
:103BE000FE01ED5BFF4F80E090E0A0E2B1E4808356
:103BF0009183A283B3838E01015C1F4FFE01ED5BB5
:103C0000FF4F608171818281938120E030E04AEF33
:103C100054E40E941F02DC01CB01F80180839183F0
:103C2000A283B383FE01FF966081718182819381BB
:103C300020E030E040E85FE30E94250488232CF474
:103C400081E090E09EAF8DAF46C0FE01FF9660819F
:103C500071818281938120E03FEF4FE757E40E941A
:103C6000C503181664F5FE01ED5BFF4F608171819D
:103C70008281938120E030E040E251E40E941F0203
:103C8000DC01CB01BC01CD010E944900DC01CB016C
:103C90009EAF8DAF0FC088EC90E09CAF8BAF8BAD2B
:103CA0009CAD0197F1F79CAF8BAF8DAD9EAD0197A9
:103CB0009EAF8DAF8DAD9EAD009769F716C0FE012A
:103CC000FF9660817181828193810E944900DC01AD
:103CD000CB019EAF8DAF8DAD9EAD9AAF89AF89AD53
:103CE0009AAD0197F1F79AAF89AF80E060E040E0CC
:103CF0000E94951180E061E041E00E94951180E012
:103D000062E041E00E94951180E063E040E00E94A3
:103D1000951180E090E0A0E2B1E48DAB9EABAFAB3B
:103D2000B8AF6DA97EA98FA998AD20E030E04AEF29
:103D300054E40E941F02DC01CB0189AB9AABABAB10
:103D4000BCAB69A97AA98BA99CA920E030E040E826
:103D50005FE30E94250488232CF481E090E098AB77
:103D60008FA73FC069A97AA98BA99CA920E03FEF42
:103D70004FE757E40E94C50318164CF56DA97EA9BC
:103D80008FA998AD20E030E040E251E40E941F028C
:103D9000DC01CB01BC01CD010E944900DC01CB015B
:103DA00098AB8FA70FC088EC90E09EA78DA78DA53C
:103DB0009EA50197F1F79EA78DA78FA598A90197BA
:103DC00098AB8FA78FA598A9009769F714C069A928
:103DD0007AA98BA99CA90E944900DC01CB0198AB70
:103DE0008FA78FA598A99CA78BA78BA59CA50197AA
:103DF000F1F79CA78BA780E060E040E00E9495115E
:103E000080E061E040E00E94951180E062E041E0E6
:103E10000E94951180E063E040E00E94951180E0EF
:103E200090E0A0E2B1E48FA398A7A9A7BAA76FA1D9
:103E300078A589A59AA520E030E04AEF54E40E94D5
:103E40001F02DC01CB018BA39CA3ADA3BEA36BA17E
:103E50007CA18DA19EA120E030E040E85FE30E94BC
:103E6000250488232CF481E090E09AA389A33FC025
:103E70006BA17CA18DA19EA120E03FEF4FE757E40D
:103E80000E94C50318164CF56FA178A589A59AA5BF
:103E900020E030E040E251E40E941F02DC01CB014F
:103EA000BC01CD010E944900DC01CB019AA389A38A
:103EB0000FC088EC90E098A38F8F8F8D98A1019709
:103EC000F1F798A38F8F89A19AA101979AA389A34B
:103ED00089A19AA1009769F714C06BA17CA18DA15B
:103EE0009EA10E944900DC01CB019AA389A389A16C
:103EF0009AA19E8F8D8F8D8D9E8D0197F1F79E8F4C
:103F00008D8F80E060E040E00E94951180E061E0EC
:103F100040E00E94951180E062E041E00E9495112E
:103F200080E063E041E00E94951180E090E0A0E233
:103F3000B1E4898F9A8FAB8FBC8F698D7A8D8B8D11
:103F40009C8D20E030E04AEF54E40E941F02DC0127
:103F5000CB018D8B9E8BAF8BB88F6D897E898F89BE
:103F6000988D20E030E040E85FE30E94250488233C
:103F70002CF481E090E09C8B8B8B3FC06D897E8917
:103F80008F89988D20E03FEF4FE757E40E94C503EB
:103F900018164CF5698D7A8D8B8D9C8D20E030E064
:103FA00040E251E40E941F02DC01CB01BC01CD01C3
:103FB0000E944900DC01CB019C8B8B8B0FC088ECED
:103FC00090E09A8B898B89899A890197F1F79A8B6E
:103FD000898B8B899C8901979C8B8B8B8B899C8986
:103FE000009769F714C06D897E898F89988D0E942A
:103FF0004900DC01CB019C8B8B8B8B899C89988B36
:104000008F878F8598890197F1F7988B8F8780E04C
:1040100060E040E00E94951180E061E040E00E9495
:10402000951180E062E040E00E94951180E063E03D
:1040300041E00E94951180E090E0A0E2B1E48B871E
:104040009C87AD87BE876B857C858D859E8520E0AE
:1040500030E04AEF54E40E941F02DC01CB018F8361
:104060009887A987BA876F81788589859A8520E0A6
:1040700030E040E85FE30E94250488232CF481E0CF
:1040800090E09E838D833FC06F81788589859A8576
:1040900020E03FEF4FE757E40E94C50318164CF5A8
:1040A0006B857C858D859E8520E030E040E251E483
:1040B0000E941F02DC01CB01BC01CD010E9449001E
:1040C000DC01CB019E838D830FC088EC90E09C8344
:1040D0008B838B819C810197F1F79C838B838D81EE
:1040E0009E8101979E838D838D819E81009769F7C4
:1040F00014C06F81788589859A850E944900DC010A
:10410000CB019E838D838D819E819A838983898152
:104110009A810197F1F79A83898380E060E041E01A
:104120000E94951180E061E040E00E94951180E0DE
:1041300062E040E00E94951180E063E041E00E946F
:104140009511DE01AD59BF4FFE01ED59FF4F808142
:104150009181019611969C938E938091FF0190918D
:1041600000029C013695279536952795369527951B
:10417000FE01ED59FF4F808191812817390708F022
:104180008DCBCA59DF4F0FB6F894DEBF0FBECDBF3F
:10419000CF91DF911F910F910895DF93CF93CDB70A
:1041A000DEB780E060E00E948314CF91DF91089534
:1041B000DF93CF93CDB7DEB780E060E040E00E94B0
:1041C00097100E948E16CF91DF910895DF93CF93C1
:1041D00000D000D0CDB7DEB71C821B821A821982B4
:1041E00080E00E94D3168C838C81282F30E0809150
:1041F000CB01882F90E0AC01249FC001259F900D3A
:10420000349F900D11249B838A838A819B812AE0AD
:1042100030E0B9010E946A29CB01898389810F901E
:104220000F900F900F90CF91DF910895DF93CF9370
:1042300000D000D00F92CDB7DEB79D838C831B8258
:104240001A821982EC81FD818081282F30E08091D3
:10425000CB01882F90E0AC01249FC001259F900DD9
:10426000349F900D11249A83898389819A812AE051
:1042700030E0B9010E946A29CB018093CC010F90F4
:104280000F900F900F900F90CF91DF910895DF93D3
:10429000CF93CDB7DEB726E131E280E0B9010E94CD
:1042A0004F178091CC01CF91DF910895DF93CF9389
:1042B000CDB7DEB72F970FB6F894DEBF0FBECDBFD8
:1042C0008F8783E060E040E00E94951183E061E029
:1042D00040E00E94951180E06F850E94C71483E042
:1042E00062E040E00E94951183E062E041E00E94BC
:1042F000951180E090E0A0E0B0E48B879C87AD87CB
:10430000BE876B857C858D859E8520E030E04AEFF9
:1043100054E40E941F02DC01CB018F839887A98798
:10432000BA876F81788589859A8520E030E040E8FA
:104330005FE30E94250488232CF481E090E09E83B3
:104340008D833FC06F81788589859A8520E03FEF16
:104350004FE757E40E94C50318164CF56B857C8522
:104360008D859E8520E030E040E251E40E941F02EE
:10437000DC01CB01BC01CD010E944900DC01CB0175
:104380009E838D830FC088EC90E09C838B838B8110
:104390009C810197F1F79C838B838D819E8101978E
:1043A0009E838D838D819E81009769F714C06F81F4
:1043B000788589859A850E944900DC01CB019E831E
:1043C0008D838D819E819A83898389819A810197CA
:1043D000F1F79A83898383E062E040E00E949511BF
:1043E0002F960FB6F894DEBF0FBECDBFCF91DF91F1
:1043F0000895DF93CF93CDB7DEB72F970FB6F8941C
:10440000DEBF0FBECDBF8F8783E061E041E00E9439
:10441000951183E060E040E00E94951180E06F8597
:104420000E94C71483E062E040E00E94951183E09F
:1044300062E041E00E94951180E090E0A0E0B0E4ED
:104440008B879C87AD87BE876B857C858D859E8598
:1044500020E030E04AEF54E40E941F02DC01CB016F
:104460008F839887A987BA876F81788589859A8590
:1044700020E030E040E85FE30E94250488232CF42C
:1044800081E090E09E838D833FC06F817885898530
:104490009A8520E03FEF4FE757E40E94C5031816C6
:1044A0004CF56B857C858D859E8520E030E040E273
:1044B00051E40E941F02DC01CB01BC01CD010E942E
:1044C0004900DC01CB019E838D830FC088EC90E016
:1044D0009C838B838B819C810197F1F79C838B83D9
:1044E0008D819E8101979E838D838D819E81009712
:1044F00069F714C06F81788589859A850E94490083
:10450000DC01CB019E838D838D819E819A8389837B
:1045100089819A810197F1F79A83898383E062E028
:1045200040E00E9495112F960FB6F894DEBF0FBEA3
:10453000CDBFCF91DF910895DF93CF93CDB7DEB795
:104540002D970FB6F894DEBF0FBECDBF9D878C8729
:1045500019821FC08981E82FFF27E7FDF0958C8520
:104560009D852AE030E0B9010E946A29282FCE01FA
:104570000296E80FF91F20838C859D852AE030E0A4
:10458000B9010E946A29CB019D878C8789818F5F41
:1045900089838C859D850097E9F68981815089837F
:1045A00011C08981282F332727FD3095CE0102962F
:1045B000FC01E20FF31F8081805D0E94F921898157
:1045C000815089838981882364F72D960FB6F894EA
:1045D000DEBF0FBECDBFCF91DF910895DF93CF93A4
:1045E00000D00F92CDB7DEB78A836B8319828A81A0
:1045F000882319F48B81898306C08A81813019F45C
:104600008B81805C898389818068898389810E940C
:1046100056210F900F900F90CF91DF910895DF9367
:10462000CF9300D00F92CDB7DEB79B838A831982D8
:104630000EC08981282F30E08A819B81FC01E20F26
:10464000F31F80810E94F92189818F5F898389818D
:10465000282F30E08A819B81FC01E20FF31F8081CB
:10466000882339F70F900F900F90CF91DF91089525
:10467000DF93CF93CDB7DEB727970FB6F894DEBFA1
:104680000FBECDBF9C838B836D834E832F831A8295
:104690008D81882F90E0880F991F880F991F880FB0
:1046A000991F898389818064898389810E94562129
:1046B0001A820EC08A81282F30E08B819C81FC01F8
:1046C000E20FF31F80810E94F9218A818F5F8A8324
:1046D0008A81883078F38E816F810E94EE228D81ED
:1046E0000E94F92127960FB6F894DEBF0FBECDBF0A
:1046F000CF91DF910895DF93CF93CDB7DEB72E979B
:104700000FB6F894DEBF0FBECDBF80E090E0A0E210
:10471000B2E48B879C87AD87BE876B857C858D8552
:104720009E8520E030E04AEF54E40E941F02DC0145
:10473000CB018F839887A987BA876F817885898510
:104740009A8520E030E040E85FE30E94250488235A
:104750002CF481E090E09E838D833FC06F8178854B
:1047600089859A8520E03FEF4FE757E40E94C50313
:1047700018164CF56B857C858D859E8520E030E094
:1047800040E251E40E941F02DC01CB01BC01CD01DB
:104790000E944900DC01CB019E838D830FC088EC11
:1047A00090E09C838B838B819C810197F1F79C83A4
:1047B0008B838D819E8101979E838D838D819E81C8
:1047C000009769F714C06F81788589859A850E9462
:1047D0004900DC01CB019E838D838D819E819A836C
:1047E000898389819A810197F1F79A83898388E384
:1047F0000E9456218FE00E94562181E00E9456219E
:104800002E960FB6F894DEBF0FBECDBFCF91DF91CD
:104810000895DF93CF93CDB7DEB781E00E94562194
:10482000CF91DF910895DF93CF93CDB7DEB780E0CE
:1048300061E00E940B1583E067E00E948314CF9132
:10484000DF910895DF93CF930F92CDB7DEB7198232
:10485000198233C08981882F90E0FC01E353FE4F19
:10486000908182E0692F40E00E9497108981882F13
:1048700090E0FC01E353FE4F908182E0692F41E01C
:104880000E9493128981882F90E0FC01EF52FE4F25
:10489000908182E0692F41E00E9497108981882FE2
:1048A00090E0FC01EF52FE4F908182E0692F41E0E1
:1048B0000E94951189818F5F89838981843050F2AC
:1048C0000F90CF91DF910895DF93CF9300D000D068
:1048D0000F92CDB7DEB78FEF89830E94D7241B825A
:1048E00057C08B81882F90E0FC01EF52FE4F9081E2
:1048F00082E0692F40E00E9495111C8237C08C81B4
:10490000882F90E0FC01E353FE4F908182E0692FF5
:104910000E9401148A838A81882329F58C81482F7B
:1049200050E08B81282F30E0CA01880F991F880F33
:10493000991F820F931FFC01EB52FE4F80818983E8
:104940000CC08C81882F90E0FC01E353FE4F9081D6
:1049500082E0692F0E9401148A838A81882389F367
:1049600089818D831BC08C818F5F8C838C81843087
:1049700030F28B81882F90E0FC01EF52FE4F908146
:1049800082E0692F41E00E9495118B818F5F8B83BC
:104990008B81843008F4A5CF89818D838D810F9020
:1049A0000F900F900F900F90CF91DF910895DF93AC
:1049B000CF930F92CDB7DEB7198219820FC08981CC
:1049C000882F90E0FC01EF52FE4F908182E0692F2A
:1049D00041E00E94951189818F5F898389818430AC
:1049E00070F30F90CF91DF910895DF93CF93CDB700
:1049F000DEB762970FB6F894DEBF0FBECDBF998BBE
:104A0000888B6A8B88899989892F992780658F87F8
:104A10000E9436088F850E948A0888890E94FD08B6
:104A20008A890E94FD080E949B0980E090E0A0E234
:104A3000B1E48B879C87AD87BE876B857C858D8530
:104A40009E8520E030E04AEF54E40E941F02DC0122
:104A5000CB018F839887A987BA876F8178858985ED
:104A60009A8520E030E040E85FE30E942504882337
:104A70002CF481E090E09E838D833FC06F81788528
:104A800089859A8520E03FEF4FE757E40E94C503F0
:104A900018164CF56B857C858D859E8520E030E071
:104AA00040E251E40E941F02DC01CB01BC01CD01B8
:104AB0000E944900DC01CB019E838D830FC088ECEE
:104AC00090E09C838B838B819C810197F1F79C8381
:104AD0008B838D819E8101979E838D838D819E81A5
:104AE000009769F714C06F81788589859A850E943F
:104AF0004900DC01CB019E838D838D819E819A8349
:104B0000898389819A810197F1F79A8389836296D3
:104B10000FB6F894DEBF0FBECDBFCF91DF910895E1
:104B2000DF93CF9300D000D0CDB7DEB79C838B83CB
:104B30008B819C81892F9927806589830E94360803
:104B400089810E948A088B810E94FD080E94670863
:104B500089810E94C508CE0102960E946C090E94BC
:104B60009B098A810F900F900F900F90CF91DF914A
:104B70000895DF93CF93CDB7DEB727970FB6F8949C
:104B8000DEBF0FBECDBF9C838B837E836D834F833F
:104B900019828B819C81892F992780658A830E9445
:104BA00036088A810E948A088B810E94FD080E9433
:104BB00067088A810E94C50819822EC08981282F22
:104BC00030E08F81882F90E001972817390779F41A
:104BD0008981282F30E08D819E81FC01E20FF31F37
:104BE0008081882F90E060E00E9426090DC08981B5
:104BF000282F30E08D819E81FC01E20FF31F808120
:104C0000882F90E00E946C098D819E8101969E8381
:104C10008D8389818F5F898399818F81981770F245
:104C20000E949B0927960FB6F894DEBF0FBECDBF3A
:104C3000CF91DF910895DF93CF93CDB7DEB7E7979C
:104C40000FB6F894DEBF0FBECDBF0E944F0680E2C4
:104C50009EE40E94520B82EC91E00E942E0B0E9477
:104C6000DD0A0E9413240E947B230E948E161BA241
:104C70001AA219A218A21F8E1E8E1D8E83E060E05C
:104C800040E00E94971083E061E041E00E949710AD
:104C900083E065E041E00E94971080E060E041E041
:104CA0000E94971080E061E041E00E94971080E050
:104CB00062E041E00E94971080E060E040E00E94E6
:104CC000951180E690E00E943C0780E690E00E940B
:104CD0003C0783E690E00E943C0780E690E00E945B
:104CE0003C0780E090E0AAE7B4E4898F9A8FAB8F0D
:104CF000BC8F698D7A8D8B8D9C8D20E030E04AEFE2
:104D000054E40E941F02DC01CB018D8B9E8BAF8B84
:104D1000B88F6D897E898F89988D20E030E040E8DA
:104D20005FE30E94250488232CF481E090E09C8BB3
:104D30008B8B3FC06D897E898F89988D20E03FEFF6
:104D40004FE757E40E94C50318164CF5698D7A8D1C
:104D50008B8D9C8D20E030E040E251E40E941F02E8
:104D6000DC01CB01BC01CD010E944900DC01CB017B
:104D70009C8B8B8B0FC088EC90E09A8B898B8989F8
:104D80009A890197F1F79A8B898B8B899C89019776
:104D90009C8B8B8B8B899C89009769F714C06D89DC
:104DA0007E898F89988D0E944900DC01CB019C8B04
:104DB0008B8B8B899C89988B8F878F85988901979E
:104DC000F1F7988B8F878AE690E00E943C0780E697
:104DD00090E00E943C070E949128CE0184960E9498
:104DE0005A078BA31D8E2BC08D8D482F50E0CA0112
:104DF0009C01220F331F240F351FC901880F991FF3
:104E0000880F991F880F991F821B930B880F991F7A
:104E1000AC014F5F5D4F8BA1282F30E0CE0184960F
:104E2000BA01A9010E94FB298E8F8E8D8D3021F44D
:104E300081E08AA31E8E06C08D8D8F5F8D8F8D8D34
:104E4000873090F28AA1813009F062C11AA281E80C
:104E500090E00E943C0780E690E00E943C07CE0173
:104E600084960E945A078BA38D8D482F50E0CA016B
:104E70009C01220F331F240F351FC901880F991F72
:104E8000880F991F880F991F821B930B880F991FFA
:104E90004496AC014F5F5D4F8BA1282F30E0CE01CF
:104EA0008496BA01A9010E94FB298E8F9CC08E8D29
:104EB0008D3009F058C081E089A31E8E8D8D882326
:104EC00049F481E990E00E943C0780E690E00E946E
:104ED0003C078DC08D8D813049F481EA90E00E94BD
:104EE0003C0780E690E00E943C0781C08D8D8230B7
:104EF00049F48EEA90E00E943C0780E690E00E9430
:104F00003C0775C08D8D833049F48CEB90E00E9496
:104F10003C0780E690E00E943C0769C08D8D84309C
:104F200049F48AEC90E00E943C0780E690E00E9401
:104F30003C075DC08D8D853049F488ED90E00E947E
:104F40003C0780E690E00E943C0751C08D8D863082
:104F500009F049C085EE90E00E943C0780E690E0B1
:104F60000E943C0744C083EF90E00E943C0780E62B
:104F700090E00E943C07CE0184960E945A078BA3C2
:104F80008D8D482F50E0CA019C01220F331F240F42
:104F9000351FC901880F991F880F991F880F991F06
:104FA000821B930B880F991F4496AC014F5F5D4F96
:104FB0008BA1282F30E0CE018496BA01A9010E946E
:104FC000FB298E8F8F8D8F5F8F8F8F8D823059F45D
:104FD00084E191E00E943C0780E690E00E943C075B
:104FE00081E088A304C08F8D823008F460CF89A14E
:104FF000813009F082C088A1882309F07EC088EE44
:1050000093E00E942E0B80E090E0AAEFB4E48B873F
:105010009C87AD87BE876B857C858D859E8520E0CE
:1050200030E04AEF54E40E941F02DC01CB018F8381
:105030009887A987BA876F81788589859A8520E0C6
:1050400030E040E85FE30E94250488232CF481E0EF
:1050500090E09E838D833FC06F81788589859A8596
:1050600020E03FEF4FE757E40E94C50318164CF5C8
:105070006B857C858D859E8520E030E040E251E4A3
:105080000E941F02DC01CB01BC01CD010E9449003E
:10509000DC01CB019E838D830FC088EC90E09C8364
:1050A0008B838B819C810197F1F79C838B838D810E
:1050B0009E8101979E838D838D819E81009769F7E4
:1050C00014C06F81788589859A850E944900DC012A
:1050D000CB019E838D838D819E819A838983898173
:1050E0009A810197F1F79A83898380ED97E00E9476
:1050F0002E0B19A20E941629E4CD88A1813009F057
:105100006ACE1F8E80E060E041E00E949511FACFE8
:105110008AA1882309F05FCE8EE191E00E943C07CE
:10512000D0CDDF93CF93CDB7DEB781E092E025E31A
:1051300031E0B90148E050E00E94F22985E192E0B7
:105140002DE331E0B90147E050E00E94F2298BE203
:1051500092E024E431E0B90145E050E00E94F229F8
:105160008FE392E029E431E0B90146E050E00E948B
:10517000F22985E592E02FE431E0B90146E050E004
:105180000E94F22989E692E025E531E0B90147E085
:1051900050E00E94F2298FE792E02CE531E0B9015E
:1051A00046E050E00E94F22983E992E022E631E0F5
:1051B000B90146E050E00E94F22989EA92E028E62F
:1051C00031E0B90146E050E00E94F2298DEB92E017
:1051D0002EE631E0B90146E050E00E94F22983ED6D
:1051E00092E024E731E0B90145E050E00E94F22965
:1051F00087EE92E029E731E0B90147E050E00E94F4
:10520000F2298DEF92E020E831E0B90146E050E06C
:105210000E94F22981E193E026E831E0B90147E0FC
:1052200050E00E94F229CF91DF910895DF93CF9350
:105230000F92CDB7DEB719828DE891E00E943C074E
:1052400080E690E00E943C0783EA91E00E943C07E0
:1052500080E690E00E943C070E94D90689838981FC
:10526000813359F480E061E041E00E94951180E0D3
:1052700062E040E00E949511EFCF8981823361F7AF
:1052800080E062E041E00E94951180E061E040E052
:105290000E949511E1CF629FD001739FF001829F20
:1052A000E00DF11D649FE00DF11D929FF00D839FB5
:1052B000F00D749FF00D659FF00D9927729FB00D52
:1052C000E11DF91F639FB00DE11DF91FBD01CF0165
:1052D00011240895AA1BBB1B51E107C0AA1FBB1FC5
:1052E000A617B70710F0A61BB70B881F991F5A9572
:1052F000A9F780959095BC01CD01089597FB092EE3
:1053000005260ED057FD04D014D00AD0001C38F466
:1053100050954095309521953F4F4F4F5F4F0895E1
:10532000F6F790958095709561957F4F8F4F9F4FC1
:105330000895A1E21A2EAA1BBB1BFD010DC0AA1FD6
:10534000BB1FEE1FFF1FA217B307E407F50720F0EE
:10535000A21BB30BE40BF50B661F771F881F991F69
:105360001A9469F760957095809590959B01AC01B2
:10537000BD01CF0108952F923F924F925F926F929D
:105380007F928F929F92AF92BF92CF92DF92EF92D5
:10539000FF920F931F93CF93DF93CDB7DEB7CA1B56
:1053A000DB0B0FB6F894DEBF0FBECDBF09942A8881
:1053B000398848885F846E847D848C849B84AA8429
:1053C000B984C884DF80EE80FD800C811B81AA81B6
:1053D000B981CE0FD11D0FB6F894DEBF0FBECDBF81
:1053E000ED010895FB01DC0102C001900D924150D6
:1053F0005040D8F70895FB01DC014150504030F097
:105400008D910190801919F40020B9F7881B990B30
:065410000895F894FFCF9F
:105416000A0D0048656C6C6F2000456E746572203D
:10542600596F75722055736572204E616D653A200D
:1054360000456E74657220596F75722050617373E2
:105446000057656C636F6D65204D61686D6F75649F
:105456000057656C636F6D65204F6D61720057650F
:105466006C636F6D652050657465720057656C637B
:105476006F6D65204B6172696D0057656C636F6D6A
:10548600652041626261730057656C636F6D6520CC
:105496007A6961640057656C636F6D652052616758
:1054A60061620057726F6E672050617373776F7217
:1054B600642C20506C6561736520547279204167B5
:1054C60061696E004D6178204C696D697400596F91
:1054D6007520617265206E6F7420726567697374DA
:1054E60065726564004D61686D6F756400313532B3
:1054F600303032004F6D617200353230303300503B
:105506006574657200313232303032004B61726937
:105516006D003532303032004162626173003132E3
:10552600303032007A69616400323932303033000B
:105536005261676162003235323030320050726536
:105546007373203120546F204F70656E204C656454
:105556002031005072657373203220546F204F70D3
:10556600656E204C656420320000000000000000DB
:10557600003F065B4F666D7D077F6F13FF000102DC
:105586000304050607313233343536373839302BC4
:065596002D2A2F433D0009
:00000001FF
